:100A93007FBFDFEFF7FBFDFEFF3F065B4F666D7D1C
:100AA30007000000000000000000FEFDFBF7EFDF81
:100AB300BF7FFF077D6D664F5B063F00FF007F0032
:0B0AC3003F001F000F000700030001B0
:020B2B00C10007
:100ACE00E50D25E0FFE50C33FEEF4401FFE50825BB
:100ADE00E024BEF582E4340AF583E4935EF50C74EB
:090AEE0001935FF50D7F107E27D6
:0B0AF700EF1FAC0670011E4C70F622D1
:070B1D00D2AFD2A8D288225A
:03000300020800F0
:10080000C0E0C083C082C0D075D000C004C006C0A4
:10081000077580FF75A0FF120AF3750800E50890C0
:100820000AAD93F580E50864086003120AF3050831
:10083000E508D3940840E6750800E508900AAD93F2
:10084000F5A0E50864086003120AF30508E508D37B
:10085000940840E6750800E508900A9393F5A0E532
:100860000864086003120AF30508E508D3940840F9
:10087000E6750800E508900A9393F580E50864089A
:100880006003120AF30508E508D3940840E6758072
:10089000FF75A0FF120AF3750800E508900A93930C
:1008A000F5A0E508900AAD93F580E50864086003BB
:1008B000120AF30508E508C3940840DE750800E550
:1008C00008900AAD93F5A0E508900A9393F580E5AA
:1008D0000864086003120AF30508E508C394084099
:1008E000DED007D006D004D0D0D082D083D0E03282
:070B2400D2AFD2AAD28A224F
:030013000208F0F0
:1008F000C0E0C083C082C0D075D000C003C004C0B7
:0509000005C006C00760
:100905007D087B087508007580FF75A0FF120AF346
:07091500E508C39408504CF3
:10091C00E50825E024BEF582E4340AF583750C0065
:10092C0074019354FEF50D750A00E50A900AAD9317
:10093C00F580E50A64086003120AF3050AE50AD398
:10094C00940840E6750900E509C39D500A850DA081
:0A095C00120ACE050980F01D0508FF
:0F09660080AD75A000750800E508C39408502FF8
:10097500E50825E024BEF582E4340AF583750C000C
:1009850074019354FEF50D750900E509C39B500AE2
:0D099500850D80120ACE050980F01B0508B3
:0209A20080CA09
:1009A400D007D006D005D004D003D0D0D082D083D5
:0309B400D0E0325E
:03000B00020B02E3
:100B0200C0E0C0D0758C3C758AB0050BE50BB4050E
:0B0B120005750B00D200D0D0D0E032FF
:100A4300758901758C3C758AB0D2AFD28CD2A975E9
:100A5300B805300033C200E508900A9393F5A0E58A
:100A630008900A9C93F5800508E508C39408401094
:100A7300E508900AA593F5A0E508900AAE93F580E2
:100A8300E508B41003E4F508120B1D120B2480C211
:030000000209B73B
:0C09B700787FE4F6D8FD7581200209FE6F
:1009C300020A43E493A3F8E493A34003F68001F2FD
:1009D30008DFF48029E493A3F85407240CC8C33335
:1009E300C4540F4420C8834004F456800146F6DF04
:1009F300E4800B0102040810204080900B2BE47E5E
:100A0300019360BCA3FF543F30E509541FFEE493F8
:100A1300A360010ECF54C025E060A840B8E493A3BF
:100A2300FAE493A3F8E493A3C8C582C8CAC583CAEA
:100A3300F0A3C8C582C8CAC583CADFE9DEE780BEA2
:010B2D0000C7
:00000001FF
