:10130300D3EF9400EE940040147D6E7C00ED1D70CD
:0D131300011CED4C70F7EF1F70E61E80E32B
:0113200022AA
:1012BB00C2937B46AF031BEF70FAD293E4FB3093E0
:1012CB00117F017E001213030BEBD3940540EF7FCC
:0412DB0000227F016D
:0112DF0022EC
:0C11D8001212BB7F017E001213037FCCBB
:1011E400E4FBFAC293053AE53A70020539EF13922B
:1011F40093753900753A06E53A153AAC397002151B
:10120400394C70F3D293EFC313FF0BBB00010AEB0D
:0512140064084A70CEE1
:0112190022B2
:10121A007D087C00C2930FBF0000D2930FBF00006D
:10122A000FBF0000A293E433C43333335480FBE985
:10123A00C3134BF97E007F04EF1FAA0670011E4AF2
:0D124A0070F6ED1D70011CED4C70C9AF0178
:011257002274
:0813A3001211D87F440211E48D
:0813AB001211D87FBE0211E40B
:10132100E4FFFE1213A31213AB12121A8F3812121A
:061331001AEFFEE538FF93
:011337002293
:0E138B0081838587898B8D80828486888A8CF9
:09128D00073C00001207050616DB
:10125800C29200C29000D29200E4FEEF139291EF86
:10126800C313FFD29000C290000EBE08EEE4FEED5C
:10127800139291EDC313FDD29000C290000EBE08E8
:04128800EEC2920020
:01128C00223F
:10114400C29200C29000D29200E4FDEF139291EF9C
:10115400C313FFD29000C290000DBD08EE00E4FD61
:10116400A291E433FFC43333335480FCEEC3134CF5
:10117400FED29000C290000DBD08E5C29200D2904C
:0911840000C29100D29100AF06F7
:01118D00223F
:1012E000E4FD7F8E121258E4FCEC90139293FF748D
:1012F0003C2CF8E6FD1212580CBC07ED7D807F8E69
:031300000212587E
:10136600E4FBEB90138B93FF121144743C2BF8A60D
:05137600070BBB07EDB1
:01137B00224F
:0A1399003F065B4F666D7D077F6F16
:10129600071381838587898B8D070A8082848688D8
:1012A6008A8C011F00012000011A0C012F00012C5D
:0412B60014012100FE
:04137C007F017E006F
:0B138000EF1FAC0670011E4C70F6223F
:10118E00121366E53EC4540F90139993F524E53E71
:10119E00540F934480F525E53DC4540F93F526E591
:1011AE003D540F934480F527E53CC4540F93F52826
:1011BE00E53C540F93F529751D00853E1E751100F3
:0A11CE00853D12750800853C0922DA
:040F3B00AB07AA0650
:100F3F00C3EA9400500DEB1B70011A6303FF6302A9
:100F4F00FF8000AD03AC02E4120D538F3B8E3A8D40
:100F5F00398C38E4FFFE7D807C3DAB3BAA3AA93942
:100F6F00A838120C48E4FBFAF9783F120B57120D10
:100F7F008CAA06AB07C3EB9419EA94004009D294EC
:100F8F007F807E961213807C007D0AAF03AE021223
:100F9F000E1F74992FF58274133EF583E493F52297
:100FAF00AE02AF037C007D0A120E1F74992DF582DD
:090FBF0074133CF583E493F5235F
:010FC8002206
:100E8200E4FDEDB408004003020F12900E94F8281E
:100E92002873020EAC020EB2020EBA020EC4020E89
:100EA200D0020EDE020EF0020F02C2A0D2A1800416
:100EB200D2A0C2A1D2A28006D2A0D2A1C2A2D2A3A3
:100EC2008008D2A0D2A1D2A2C2A3D2A4800AD2A068
:100ED200D2A1D2A2D2A3C2A4D2A5800CD2A0D2A166
:100EE200D2A2D2A3D2A4C2A5D2A6D2A78022D2A035
:100EF200D2A1D2A2D2A3D2A4D2A5C2A6D2A7801036
:100F0200D2A0D2A1D2A2D2A3D2A4D2A5D2A6C2A743
:100F1200ED6003BD0105C374018003C374099D2400
:100F220022F8E6F5807F647E00121380E4F5800DDE
:080F3200ED64086003020E8467
:010F3A002294
:1013380020B21312137C20B20D30B2FD051FE51F39
:07134800B40403E4F51F22C9
:10134F0020B31312137C20B30D30B3FD0520E5201D
:07135F00B40403E4F52022B1
:1010550020B47812137C30B4FDE51FB401120509E4
:10106500E50970020508643C45087004F508F509B2
:10107500E51FB402120512E51270020511643C4524
:10108500117004F511F512E51FB40312051EE51ED6
:101095007002051D6418451D7004F51DF51EE5203B
:1010A500B4010A052CE52CB43C03E4F52CE520B489
:1010B500020A052FE52FB43C03E4F52FE520B40320
:0C10C5000A051AE51AB41803E4F51A2213
:1010D10020B56F12137C30B5FDE51FB40113E5098E
:1010E100150970021508E50945087005F508750927
:1010F1003BE51FB40213E512151270021511E5123A
:1011010045117005F51175123BE51FB40313E51E7A
:10111100151E7002151DE51E451D7005F51D751E78
:1011210017E520B40106D52C03752C3BE520B4024C
:1011310006D52F03752F3BE520B40306D51A037599
:031141001A172258
:030800001212E0F1
:10080300E4F532F533F534F535F536F537C29412A0
:10081300118E121321120F3BE508C4F854F0C86877
:10082300FEE509C4540F48FF7C007D0A120E0DE556
:1008330009540F2FF509EC3EF508E511C4F854F0FF
:10084300C868FEE512C4540F48FF120E0DE512549A
:100853000F2FF512EC3EF511E51DC4F854F0C868EE
:10086300FEE51EC4540F48FF120E0DE51E540F2F54
:10087300F51EEC3EF51D12133812134F12105512CC
:1008830010D1AE08AF097C00120E1FEFC4F8540F4D
:10089300C868FBEEC454F048FAAE08AF097C007D8B
:1008A3000A120E1FED2BF509EC3AF508AE11AF1243
:1008B3007C007D0A120E1FEFC4F8540FC868FBEECC
:1008C300C454F048FAAE11AF127C007D0A120E1F19
:1008D300ED2BF512EC3AF511AE1DAF1E7C007D0A2F
:1008E300120E1FEFC4F8540FC868FBEEC454F0484F
:1008F300FAAE1DAF1E7C007D0A120E1FED2BF51EF6
:10090300EC3AF51DE51F700302098C7D807F801290
:100913001258851E3E85123D85093CE4FD7F8E12EB
:100923001258E4F530F531AE31740A2EF8E6FF744F
:100933003C2EF8E6FD1212580531E5317002053000
:10094300C39407E530940040DE7D807F8E121258F9
:10095300E4F530F53174132531F8E6FF12114474D0
:100963003C2531F8A6070531E53170020530C39403
:1009730007E530940040DE751D00853E1E751100AD
:10098300853D12750800853C09E52CC3940040158C
:10099300E52CD39409500EE52CB50909E4B50805F7
:1009A300F536753701E52CC3940A401DE52CD39425
:1009B300135016E52C2406FFE433FEEFB5090AEEC7
:1009C300B50806753600753701E52CC39414401D30
:1009D300E52CD3941D5016E52C240CFFE433FEEFD5
:1009E300B5090AEEB50806753600753701E52CC35F
:1009F300941E401DE52CD394275016E52C2412FF9A
:100A0300E433FEEFB5090AEEB5080675360075370F
:100A130001E52CC39428401DE52CD394315016E5F1
:100A23002C2418FFE433FEEFB5090AEEB50806756A
:100A33003600753701E52CC39432401DE52CD39461
:100A43003B5016E52C241EFFE433FEEFB5090AEEF6
:100A5300B50806753600753701E53745366009D2A6
:100A6300947F807E96121380E51F7003020B03E5CB
:100A73001DC4F854F0C868FEE51EC4540F482499F9
:100A8300F58274133EF583E493F5247E00E51E544A
:100A93000F2499F582EE3413F583E4934480F5250E
:100AA300E511C4F854F0C868FEE512C4540F482495
:100AB30099F58274133EF583E493F5267E00E512DF
:100AC300540F2499F582EE3413F583E4934480F5AF
:100AD30027E508C4F854F0C868FEE509C4540F4874
:100AE3002499F58274133EF583E493F5287E00E59B
:100AF30009540F2499F582EE3413F583E493F52911
:100B0300E5206043E51A75F00A8490139993F52460
:100B1300E51A75F00A84E5F0934480F525E52F7511
:100B2300F00A8493F526E52F75F00A84E5F09344E3
:100B330080F527E52C75F00A8493F528E52C75F0EC
:0A0B43000A84E5F093F529120E82F2
:030B4D0002080398
:100B5000020DF8E86480F8E933E83360110460F0CE
:100B6000ED33EC337009E8FCE9FDEAFEEBFF22040B
:100B700060DED3EB9FEA9EE99DE8C2E78CF0C2F706
:100B800095F0400CE8CCF8E9CDF9EACEFAEBCFFBD2
:100B9000120DC385D0F05804700320D5B3E804705B
:100BA000075002B2D5020E0292D5EC0460F7E4CCF5
:100BB000C0E0C398F8603B94186008400DD0E0FB9B
:100BC000020DDAE4FBFAC9FC8028E830E406E4C947
:100BD000FBE4CAFCE830E305E4C9CACBFCE85407EF
:100BE0006010F8C3E913F9EA13FAEB13FBEC13FCFA
:100BF000D8F130F52FC3E49CFCEF9BFFEE9AFEED9D
:100C000099FDD0E0FBEF4E4D4C701222DB03020D3C
:100C1000FFEC2CFCEF33FFEE33FEED33FDED30E760
:100C2000EB020DDAEF2BFFEE3AFEED39FDD0E0FBE3
:100C300050130BBB0003020E02ED13FDEE13FEEF8B
:080C400013FFEC13FC020DDAB6
:100C4800EC4D6011E8497017ED33EC3304600DE4A6
:100C5800FCFFFEFD22E933E8330470F8020DF812B8
:100C68000DC358046009E4CC2481500628500902B9
:100C78000E02284003020DFFC0E0EB4A7044B98021
:100C880006D0E0FB020DEEEF4E701CBD8008EBFFB6
:100C9800EAFEE9FD80EBE98DF0A4FEE5F0020D31F6
:100CA800E9CDF9EAFEEBFFEF89F0A4FCE5F0CE8987
:100CB800F0A42EFFE435F0CD89F0A42DFEE435F044
:100CC8008067EF4E7005BD80D780C3EF8BF0A4AC72
:100CD800F0EE8BF0A42CFCE435F0F8EF8AF0A42CAD
:100CE800E5F038FCE433CB8DF0A42CFCE5F03BF8C0
:100CF800EE8AF0A42CFCE5F038F8E433CF89F0A4B0
:100D08002CFCE5F038CF3400CE89F0A42FFFE5F0B5
:100D18003EFEE433C98DF0A42EFEE5F039CD8AF00D
:100D2800A42FFFE5F03EFEE43DFD33D0E0FB500785
:100D38000BBB000F020E02EC2CFCEF33FFEE33FE70
:060D4800ED33FD020DDA9F
:100D4E0075F020800E75F010800575F0087D007E20
:100D5E00007F003392D530D503120E74EC33401061
:100D6E00EF33FFEE33FEED33FDEC33FCD5F0ED2229
:0E0D7E00E5F0247EA2D513CC92E7CDCEFF2265
:100D8C00EDD2E7CD33EC3392D524814006E4FFFE5F
:100D9C00FDFC22FCE4CFCECDCC24E0501174FF80BE
:100DAC00EDC3CC13CCCD13CDCE13CECF13CF04705B
:070DBC00F030D5DE020E74D9
:100DC300E9D2E7C933E833F892D5EDD2E7CD33EC76
:070DD30033FC5002B2D522EF
:100DDA00EC30E7100FBF000C0EBE00080DBD00047A
:100DEA000BEB6014A2D5EB13FCED92E7FD2274FF26
:100DFA00FCFDFEFF22E480F8A2D574FF13FC7D807F
:030E0A00E480EF92
:03000000020FC923
:0C0FC900787FE4F6D8FD7581420210101C
:100E0D00EF8DF0A4A8F0CF8CF0A428CE8DF0A42EF9
:020E1D00FE22B3
:100E1F00BC000BBE0029EF8DF084FFADF022E4CCB7
:100E2F00F875F008EF2FFFEE33FEEC33FCEE9DEC80
:100E3F00984005FCEE9DFE0FD5F0E9E4CEFD22EDC6
:100E4F00F8F5F0EE8420D21CFEADF075F008EF2F10
:100E5F00FFED33FD4007985006D5F0F222C398FD01
:050E6F000FD5F0EA229E
:0E0E7400C3E49FFFE49EFEE49DFDE49CFC228F
:100FD500020800E493A3F8E493A34003F68001F22A
:100FE50008DFF48029E493A3F85407240CC8C3331D
:100FF500C4540F4420C8834004F456800146F6DFEC
:10100500E4800B010204081020408090128DE47EDC
:10101500019360BCA3FF543F30E509541FFEE493E0
:10102500A360010ECF54C025E060A840B8E493A3A7
:10103500FAE493A3F8E493A3C8C582C8CAC583CAD2
:10104500F0A3C8C582C8CAC583CADFE9DEE780BE8A
:0112BA000033
:00000001FF
